{
  "_format": "hh-sol-artifact-1",
  "contractName": "BountyFactory",
  "sourceName": "contracts/BountyFactory.sol",
  "abi": [
    {
      "inputs": [
        {
          "internalType": "address",
          "name": "_masterContract",
          "type": "address"
        }
      ],
      "stateMutability": "nonpayable",
      "type": "constructor"
    },
    {
      "inputs": [
        {
          "internalType": "uint256",
          "name": "",
          "type": "uint256"
        }
      ],
      "name": "children",
      "outputs": [
        {
          "internalType": "contract Bounty",
          "name": "",
          "type": "address"
        }
      ],
      "stateMutability": "view",
      "type": "function"
    },
    {
      "inputs": [
        {
          "internalType": "address",
          "name": "_client_address",
          "type": "address"
        },
        {
          "internalType": "uint256",
          "name": "_award",
          "type": "uint256"
        }
      ],
      "name": "createChild",
      "outputs": [],
      "stateMutability": "nonpayable",
      "type": "function"
    },
    {
      "inputs": [
        {
          "internalType": "address",
          "name": "client_address",
          "type": "address"
        }
      ],
      "name": "getBounties",
      "outputs": [
        {
          "internalType": "contract Bounty[]",
          "name": "",
          "type": "address[]"
        }
      ],
      "stateMutability": "view",
      "type": "function"
    },
    {
      "inputs": [],
      "name": "getChildren",
      "outputs": [
        {
          "internalType": "contract Bounty[]",
          "name": "",
          "type": "address[]"
        }
      ],
      "stateMutability": "view",
      "type": "function"
    }
  ],
  "bytecode": "0x608060405234801561001057600080fd5b50604051610afe380380610afe8339818101604052810190610032919061008d565b806000806101000a81548173ffffffffffffffffffffffffffffffffffffffff021916908373ffffffffffffffffffffffffffffffffffffffff160217905550506100ff565b600081519050610087816100e8565b92915050565b60006020828403121561009f57600080fd5b60006100ad84828501610078565b91505092915050565b60006100c1826100c8565b9050919050565b600073ffffffffffffffffffffffffffffffffffffffff82169050919050565b6100f1816100b6565b81146100fc57600080fd5b50565b6109f08061010e6000396000f3fe608060405234801561001057600080fd5b506004361061004c5760003560e01c80634892e8e8146100515780637002ce421461006f5780639703e7331461009f578063e52c9f94146100bb575b600080fd5b6100596100eb565b60405161006691906107eb565b60405180910390f35b6100896004803603810190610084919061068b565b610179565b604051610096919061080d565b60405180910390f35b6100b960048036038101906100b4919061064f565b6101b8565b005b6100d560048036038101906100d09190610626565b61035a565b6040516100e291906107eb565b60405180910390f35b6060600280548060200260200160405190810160405280929190818152602001828054801561016f57602002820191906000526020600020905b8160009054906101000a900473ffffffffffffffffffffffffffffffffffffffff1673ffffffffffffffffffffffffffffffffffffffff1681526020019060010190808311610125575b5050505050905090565b6002818154811061018957600080fd5b906000526020600020016000915054906101000a900473ffffffffffffffffffffffffffffffffffffffff1681565b60006101e360008054906101000a900473ffffffffffffffffffffffffffffffffffffffff16610465565b90508073ffffffffffffffffffffffffffffffffffffffff1663399ae72484846040518363ffffffff1660e01b81526004016102209291906107c2565b600060405180830381600087803b15801561023a57600080fd5b505af115801561024e573d6000803e3d6000fd5b50505050600160008473ffffffffffffffffffffffffffffffffffffffff1673ffffffffffffffffffffffffffffffffffffffff168152602001908152602001600020819080600181540180825580915050600190039060005260206000200160009091909190916101000a81548173ffffffffffffffffffffffffffffffffffffffff021916908373ffffffffffffffffffffffffffffffffffffffff1602179055506002819080600181540180825580915050600190039060005260206000200160009091909190916101000a81548173ffffffffffffffffffffffffffffffffffffffff021916908373ffffffffffffffffffffffffffffffffffffffff160217905550505050565b606061039a6040518060400160405280600c81526020017f67657420626f756e74696573000000000000000000000000000000000000000081525061053a565b600160008373ffffffffffffffffffffffffffffffffffffffff1673ffffffffffffffffffffffffffffffffffffffff16815260200190815260200160002080548060200260200160405190810160405280929190818152602001828054801561045957602002820191906000526020600020905b8160009054906101000a900473ffffffffffffffffffffffffffffffffffffffff1673ffffffffffffffffffffffffffffffffffffffff168152602001906001019080831161040f575b50505050509050919050565b60006040517f3d602d80600a3d3981f3363d3d373d3d3d363d7300000000000000000000000081528260601b60148201527f5af43d82803e903d91602b57fd5bf3000000000000000000000000000000000060288201526037816000f0915050600073ffffffffffffffffffffffffffffffffffffffff168173ffffffffffffffffffffffffffffffffffffffff161415610535576040517f08c379a000000000000000000000000000000000000000000000000000000000815260040161052c9061084a565b60405180910390fd5b919050565b6105d08160405160240161054e9190610828565b6040516020818303038152906040527f41304fac000000000000000000000000000000000000000000000000000000007bffffffffffffffffffffffffffffffffffffffffffffffffffffffff19166020820180517bffffffffffffffffffffffffffffffffffffffffffffffffffffffff83818316178352505050506105d3565b50565b60008151905060006a636f6e736f6c652e6c6f679050602083016000808483855afa5050505050565b60008135905061060b8161098c565b92915050565b600081359050610620816109a3565b92915050565b60006020828403121561063857600080fd5b6000610646848285016105fc565b91505092915050565b6000806040838503121561066257600080fd5b6000610670858286016105fc565b925050602061068185828601610611565b9150509250929050565b60006020828403121561069d57600080fd5b60006106ab84828501610611565b91505092915050565b60006106c08383610739565b60208301905092915050565b6106d5816108bf565b82525050565b60006106e68261087a565b6106f0818561089d565b93506106fb8361086a565b8060005b8381101561072c57815161071388826106b4565b975061071e83610890565b9250506001810190506106ff565b5085935050505092915050565b610742816108fb565b82525050565b610751816108fb565b82525050565b600061076282610885565b61076c81856108ae565b935061077c81856020860161091f565b61078581610952565b840191505092915050565b600061079d6016836108ae565b91506107a882610963565b602082019050919050565b6107bc816108f1565b82525050565b60006040820190506107d760008301856106cc565b6107e460208301846107b3565b9392505050565b6000602082019050818103600083015261080581846106db565b905092915050565b60006020820190506108226000830184610748565b92915050565b600060208201905081810360008301526108428184610757565b905092915050565b6000602082019050818103600083015261086381610790565b9050919050565b6000819050602082019050919050565b600081519050919050565b600081519050919050565b6000602082019050919050565b600082825260208201905092915050565b600082825260208201905092915050565b60006108ca826108d1565b9050919050565b600073ffffffffffffffffffffffffffffffffffffffff82169050919050565b6000819050919050565b60006109068261090d565b9050919050565b6000610918826108d1565b9050919050565b60005b8381101561093d578082015181840152602081019050610922565b8381111561094c576000848401525b50505050565b6000601f19601f8301169050919050565b7f455243313136373a20637265617465206661696c656400000000000000000000600082015250565b610995816108bf565b81146109a057600080fd5b50565b6109ac816108f1565b81146109b757600080fd5b5056fea26469706673582212200f71837f7daa42763022462d534af90a16b1b6bb79ffe389cd4c348ad791191f64736f6c63430008040033",
  "linkReferences": {},
  "deployedLinkReferences": {}
}