{
  "_format": "hh-sol-artifact-1",
  "contractName": "BountyFactory",
  "sourceName": "contracts/BountyFactory.sol",
  "abi": [
    {
      "inputs": [
        {
          "internalType": "address",
          "name": "_mainContract",
          "type": "address"
        }
      ],
      "stateMutability": "payable",
      "type": "constructor"
    },
    {
      "inputs": [
        {
          "internalType": "uint256",
          "name": "",
          "type": "uint256"
        }
      ],
      "name": "bounties",
      "outputs": [
        {
          "internalType": "contract Bounty",
          "name": "",
          "type": "address"
        }
      ],
      "stateMutability": "view",
      "type": "function"
    },
    {
      "inputs": [
        {
          "internalType": "address",
          "name": "_organization_address",
          "type": "address"
        },
        {
          "internalType": "string",
          "name": "_ipfs_cid",
          "type": "string"
        }
      ],
      "name": "createBounty",
      "outputs": [],
      "stateMutability": "payable",
      "type": "function"
    },
    {
      "inputs": [],
      "name": "getBounties",
      "outputs": [
        {
          "internalType": "contract Bounty[]",
          "name": "",
          "type": "address[]"
        }
      ],
      "stateMutability": "view",
      "type": "function"
    },
    {
      "inputs": [
        {
          "internalType": "address",
          "name": "organization_address",
          "type": "address"
        }
      ],
      "name": "getBountiesFromOrganization",
      "outputs": [
        {
          "internalType": "string[]",
          "name": "",
          "type": "string[]"
        }
      ],
      "stateMutability": "view",
      "type": "function"
    }
  ],
  "bytecode": "0x6080604052604051610d7d380380610d7d83398181016040528101906100259190610080565b806000806101000a81548173ffffffffffffffffffffffffffffffffffffffff021916908373ffffffffffffffffffffffffffffffffffffffff160217905550506100f2565b60008151905061007a816100db565b92915050565b60006020828403121561009257600080fd5b60006100a08482850161006b565b91505092915050565b60006100b4826100bb565b9050919050565b600073ffffffffffffffffffffffffffffffffffffffff82169050919050565b6100e4816100a9565b81146100ef57600080fd5b50565b610c7c806101016000396000f3fe60806040526004361061003f5760003560e01c80630cf0ac1d1461004457806323635e0a1461006f578063859e0547146100ac578063dc2f8744146100c8575b600080fd5b34801561005057600080fd5b50610059610105565b6040516100669190610907565b60405180910390f35b34801561007b57600080fd5b5061009660048036038101906100919190610670565b610193565b6040516100a39190610929565b60405180910390f35b6100c660048036038101906100c19190610699565b6102ab565b005b3480156100d457600080fd5b506100ef60048036038101906100ea91906106ed565b610427565b6040516100fc919061094b565b60405180910390f35b6060600280548060200260200160405190810160405280929190818152602001828054801561018957602002820191906000526020600020905b8160009054906101000a900473ffffffffffffffffffffffffffffffffffffffff1673ffffffffffffffffffffffffffffffffffffffff168152602001906001019080831161013f575b5050505050905090565b6060600160008373ffffffffffffffffffffffffffffffffffffffff1673ffffffffffffffffffffffffffffffffffffffff168152602001908152602001600020805480602002602001604051908101604052809291908181526020016000905b828210156102a057838290600052602060002001805461021390610b1d565b80601f016020809104026020016040519081016040528092919081815260200182805461023f90610b1d565b801561028c5780601f106102615761010080835404028352916020019161028c565b820191906000526020600020905b81548152906001019060200180831161026f57829003601f168201915b5050505050815260200190600101906101f4565b505050509050919050565b60006102d660008054906101000a900473ffffffffffffffffffffffffffffffffffffffff16610466565b90508073ffffffffffffffffffffffffffffffffffffffff1663f321b3053485856040518463ffffffff1660e01b81526004016103149291906108d7565b6000604051808303818588803b15801561032d57600080fd5b505af1158015610341573d6000803e3d6000fd5b5050505050600160008473ffffffffffffffffffffffffffffffffffffffff1673ffffffffffffffffffffffffffffffffffffffff168152602001908152602001600020829080600181540180825580915050600190039060005260206000200160009091909190915090805190602001906103be92919061053b565b506002819080600181540180825580915050600190039060005260206000200160009091909190916101000a81548173ffffffffffffffffffffffffffffffffffffffff021916908373ffffffffffffffffffffffffffffffffffffffff160217905550505050565b6002818154811061043757600080fd5b906000526020600020016000915054906101000a900473ffffffffffffffffffffffffffffffffffffffff1681565b60006040517f3d602d80600a3d3981f3363d3d373d3d3d363d7300000000000000000000000081528260601b60148201527f5af43d82803e903d91602b57fd5bf3000000000000000000000000000000000060288201526037816000f0915050600073ffffffffffffffffffffffffffffffffffffffff168173ffffffffffffffffffffffffffffffffffffffff161415610536576040517f08c379a000000000000000000000000000000000000000000000000000000000815260040161052d90610966565b60405180910390fd5b919050565b82805461054790610b1d565b90600052602060002090601f01602090048101928261056957600085556105b0565b82601f1061058257805160ff19168380011785556105b0565b828001600101855582156105b0579182015b828111156105af578251825591602001919060010190610594565b5b5090506105bd91906105c1565b5090565b5b808211156105da5760008160009055506001016105c2565b5090565b60006105f16105ec846109ab565b610986565b90508281526020810184848401111561060957600080fd5b610614848285610adb565b509392505050565b60008135905061062b81610c18565b92915050565b600082601f83011261064257600080fd5b81356106528482602086016105de565b91505092915050565b60008135905061066a81610c2f565b92915050565b60006020828403121561068257600080fd5b60006106908482850161061c565b91505092915050565b600080604083850312156106ac57600080fd5b60006106ba8582860161061c565b925050602083013567ffffffffffffffff8111156106d757600080fd5b6106e385828601610631565b9150509250929050565b6000602082840312156106ff57600080fd5b600061070d8482850161065b565b91505092915050565b60006107228383610824565b60208301905092915050565b600061073a8383610842565b905092915050565b61074b81610a7b565b82525050565b600061075c826109fc565b6107668185610a37565b9350610771836109dc565b8060005b838110156107a25781516107898882610716565b975061079483610a1d565b925050600181019050610775565b5085935050505092915050565b60006107ba82610a07565b6107c48185610a48565b9350836020820285016107d6856109ec565b8060005b8581101561081257848403895281516107f3858261072e565b94506107fe83610a2a565b925060208a019950506001810190506107da565b50829750879550505050505092915050565b61082d81610ab7565b82525050565b61083c81610ab7565b82525050565b600061084d82610a12565b6108578185610a59565b9350610867818560208601610aea565b61087081610bde565b840191505092915050565b600061088682610a12565b6108908185610a6a565b93506108a0818560208601610aea565b6108a981610bde565b840191505092915050565b60006108c1601683610a6a565b91506108cc82610bef565b602082019050919050565b60006040820190506108ec6000830185610742565b81810360208301526108fe818461087b565b90509392505050565b600060208201905081810360008301526109218184610751565b905092915050565b6000602082019050818103600083015261094381846107af565b905092915050565b60006020820190506109606000830184610833565b92915050565b6000602082019050818103600083015261097f816108b4565b9050919050565b60006109906109a1565b905061099c8282610b4f565b919050565b6000604051905090565b600067ffffffffffffffff8211156109c6576109c5610baf565b5b6109cf82610bde565b9050602081019050919050565b6000819050602082019050919050565b6000819050602082019050919050565b600081519050919050565b600081519050919050565b600081519050919050565b6000602082019050919050565b6000602082019050919050565b600082825260208201905092915050565b600082825260208201905092915050565b600082825260208201905092915050565b600082825260208201905092915050565b6000610a8682610a8d565b9050919050565b600073ffffffffffffffffffffffffffffffffffffffff82169050919050565b6000819050919050565b6000610ac282610ac9565b9050919050565b6000610ad482610a8d565b9050919050565b82818337600083830152505050565b60005b83811015610b08578082015181840152602081019050610aed565b83811115610b17576000848401525b50505050565b60006002820490506001821680610b3557607f821691505b60208210811415610b4957610b48610b80565b5b50919050565b610b5882610bde565b810181811067ffffffffffffffff82111715610b7757610b76610baf565b5b80604052505050565b7f4e487b7100000000000000000000000000000000000000000000000000000000600052602260045260246000fd5b7f4e487b7100000000000000000000000000000000000000000000000000000000600052604160045260246000fd5b6000601f19601f8301169050919050565b7f455243313136373a20637265617465206661696c656400000000000000000000600082015250565b610c2181610a7b565b8114610c2c57600080fd5b50565b610c3881610aad565b8114610c4357600080fd5b5056fea2646970667358221220a4bd9b137a08fddd965bee97822a890c1750cee419bfc5c4326cced4eab9276164736f6c63430008040033",
  "linkReferences": {},
  "deployedLinkReferences": {}
}